:02000002B0004C
:1040000000400B0090690B00000006000C00050248
:084010000401A50F00000000EF
:04401800F8640B003D
:10401C0009480A49884208B505D0094A824202D0AB
:10402C00121A02F078F90748074A0021121A02F016
:10403C009AF9014808BD00BFB8DF0320F8680B00EF
:10404C0028E0032028E00320EDE7032070B5074E9D
:10405C00074C01F09DFAA41BA4080025AC4200D12A
:10406C0070BD56F8043B98470135F7E7A8680B007C
:10407C00CC680B0000F016B808B500F06BF8BDE882
:10408C00084001F03DBA01F02DB801F02BB801F059
:10409C0031B80078B0FA80F0400970470123037002
:1040AC00704700001FB501F013FE4FF4E13101F031
:1040BC0003FE174B0121187802F052F8154B012121
:1040CC00187802F04DF802F0E3F8134A0146572332
:1040DC00124800F0CFFA28B901F0FAFD104901F0AE
:1040EC00B0F9FEE701F0F4FD0E4901F0AAF940F237
:1040FC009B134FF48052CDE901326423009307489F
:10410C00022304223C2100F075FB05B05DF804FB92
:10411C00B8DF0320B9DF0320801A0600C4E10320B6
:10412C000C650B003F650B0038B5046805467CB187
:10413C006368013B63605BB9236820469B689847C2
:10414C00A368013BA3601BB923682046DB68984732
:10415C00284638BD2DE9F04F9D4F9E4DDFF888A2C3
:10416C00DFF88C9264238DB03B6000263968F4B282
:10417C008C4232DA284600F062F918B9284600F071
:10418C00A0F9F7E7284600F051FA4AF8240028462F
:10419C0000F058FA49F82400284600F05DF901F0C7
:1041AC0097FD8D4901F033F901F092FD0A225AF87E
:1041BC00241001F048F901F08BFD884901F027F932
:1041CC0001F086FD59F8241080460A2201F03BF9D3
:1041DC00404601F020F90136C8E7814BDFF83C92EC
:1041EC00804D0093804A814B8148CDF80890019511
:1041FC0000F05EFC7D4E7F49DFF824B2DFF824A28C
:10420C00744C4FF49672A1F1640002F092F87A4962
:10421C004FF49672A1F1640002F08BF81923049309
:10422C00204600F00CF918B9204600F04AF9F7E7DF
:10423C00724B93F80080404601F0BCFFB0FA80F15D
:10424C004909404601F09DFF204600F0EFF9CBF8FC
:10425C000000204600F0F6F9CAF80000204600F0F5
:10426C00FBF801F035FD5C4901F0D1F801F030FDAF
:10427C000A225BF8041B01F0E6F801F029FD57490E
:10428C0001F0C5F801F024FD0A225AF8041B01F0D4
:10429C00DAF801F01DFD5A4901F0B9F801F018FDEA
:1042AC002A68002A804680F28A802D21059201F02E
:1042BC00ABF8059A51420A22404601F0C4F801F0CD
:1042CC0007FD504901F0A3F801F002FD99F9002017
:1042DC00002A804675DA2D21059201F095F8059A91
:1042EC0051420A22404601F0AEF801F0F1FC464979
:1042FC0001F08DF801F0ECFC3268002A804662DA9D
:10430C002D21059201F080F8059A51420A2240466F
:10431C0001F099F801F0DCFC3C4901F078F801F06F
:10432C00D7FC2F4B93F90020002A80464DDA2D2123
:10433C00059201F069F8059A51420A22404601F0B3
:10434C0082F8404601F067F8049B013B13F0FF0331
:10435C0004937FF465AF224B39682D4C0093CDE963
:10436C0001593346204A224800F0A2FB29680A2250
:10437C0008A800F0EAFF2378089A26498DF8003047
:10438C0006A83C2301F062FA07A8FFF7CDFE08A8A7
:10439C0000F07EFF31680A2208A800F0D6FF2378CF
:1043AC00089A1D498DF8003006A83C2301F04EFAFE
:1043BC0007A8FFF7B9FE08A800F06AFF1BE7114633
:1043CC0079E711468DE71146A0E71146B5E700BF26
:1043DC002CE00320C4E103208B650B0090650B00DF
:1043EC0095E3032030E0032000E2032090E3032058
:1043FC0034E0032064E2032098E00320B9DF0320BB
:10440C0096650B009C650B00A7650B00AF650B0058
:10441C0028E00320BC650B00C6650B0094E3032069
:10442C002CE3032060E10320024B034801221A70A5
:10443C0000F004B828E00320C4E10320704790F892
:10444C00383090F83900181AC3B240B20028BCBFFB
:10445C00181D40B2C0B2704708B50246FFF7EFFF17
:10446C0030B192F83930013303F0030382F839305C
:10447C0008BD70B50446006816460D4601F034FDC3
:10448C002068036831469B6898470021206801F03A
:10449C0032FD20680122294601F023FD20680368C3
:1044AC001B69984720B1206803685B699847C0B2C4
:1044BC0070BD01790422FFF7DCBF01790622FFF7FA
:1044CC00D8BF2DE9F7430446FFF7F7FF0546204612
:1044DC00FFF7EFFF854200F08E80451B4FF0570130
:1044EC002068667948BF203501F002FD206803681A
:1044FC0007219B689847206801F001FD6E4306EB8D
:10450C0046064FF020084FF00009002E74DD202ED7
:10451C00C8BF62792068C9BF02EB42023746B8FBBC
:10452C00F2F757433A465721F61B01F0DAFC002FFD
:10453C00EBDD94F8383020688DF80790013303F0E8
:10454C00030384F8383003685B6998478DF80600DC
:10455C00206803685B6998478DF80500206803683C
:10456C005B69984794F838308DF80400019A02334F
:10457C00C2F3110244F823206379012B19D9206866
:10458C0003685B6998478DF80600206803685B69CF
:10459C0098478DF80500206803685B69984794F884
:1045AC0038308DF80400019A0633C2F3110244F836
:1045BC0023206379022B19D9206803685B6998471B
:1045CC008DF80600206803685B6998478DF8050034
:1045DC00206803685B69984794F838308DF80400BC
:1045EC00019A0A33C2F3110244F823206379A3EB36
:1045FC0083031F449BE70025A8B203B0BDE8F083FA
:10460C0070B505460E4600F0C1FB044600F0BEFB3B
:10461C00001BB04208D82846FFF753FF012804D0EE
:10462C00012000F041FFF1E7002070BD10B5FA2128
:10463C000446FFF7E5FF20B194F83830023354F804
:10464C00230010BD10B5FA210446FFF7D9FF20B1A5
:10465C0094F83830063354F8230010BD0179FF224A
:10466C00FFF707BF10B5FE2201790446FFF701FFE3
:10467C00A07110BD37B50446084621601D46019255
:10468C0001F000FC0199206801F0F8FB257120462F
:10469C00FFF7E4FF152805D12046FFF7E3FF0120C3
:1046AC0003B030BD0020FBE770B504460068164629
:1046BC001D4601F019FC2068036831469B68984739
:1046CC002068036829469B6898472068BDE87040BD
:1046DC0001F015BC0B460C220179FFF7E5BF0B4628
:1046EC000D220179FFF7E0BF0B460E220179FFF78F
:1046FC00DBBF0B4610220179FFF7D6BF10B504467D
:10470C00017900230422FFF7CFFF217920460023F3
:10471C000522FFF7C9FF217920460023BDE8104090
:10472C000622FFF7C1BF2DE9F0410D4617460A4698
:10473C00017904461E46FFF79CFE384046EA00030A
:10474C0021792A462046BDE8F041FFF7ADBF38B5C8
:10475C00BF22402309210446FFF7E5FF00F016FBBA
:10476C00054600F013FB401B63280AD82179092267
:10477C002046FFF77EFE430603D5012000F094FE91
:10478C00EFE738BD0B46F8220921FFF7CCBF0B46EB
:10479C009F220A21FFF7C7BF0B46E3220A21FFF72E
:1047AC00C2BF0B46FC220A21FFF7BDBF01391346DD
:1047BC00032914D8DFE801F002060B0EF8221121B0
:1047CC00FFF7B1BF1B0103F0F0038F22F7E7F822CC
:1047DC001221F5E71B0103F0F0038F22F8E7704775
:1047EC000B461F220821FFF79EBF1023EF22082142
:1047FC00FFF799BF2DE9F0471546DDE90879DDF89B
:10480C0028A0044688461E46FFF7A1FF012D49D17A
:10481C0000212046FFF7E4FF2046FFF7E6FF032EBA
:10482C0054D107212046FFF7ADFFBAF5805F6671C2
:10483C0051DA00212046FFF7AAFF632F58DC002134
:10484C002046FFF7A9FFB9F1750F71DC0021204656
:10485C00FFF7A7FF41462046FFF73CFF41462046A5
:10486C00FFF73DFF41462046FFF73EFF41462046FD
:10487C00FFF73FFF012211462046FFF797FF012E5D
:10488C000BD9022211462046FFF790FF022E04D0CE
:10489C00032211462046FFF789FF2046BDE8F0476A
:1048AC00FFF72CBF022D01D12021B2E7042D01D13D
:1048BC004021AEE7082D01D16021AAE7102D01D1CE
:1048CC008021A6E7202DF3D1A021A2E7022E0CBF58
:1048DC0003210221A6E7BAF5005F01DA2021A9E73E
:1048EC00BAF5804F01DA4021A4E7A2D16021A1E7FB
:1048FC00C72F01DC0421A3E7B7F5C87F01DA082133
:10490C009EE7B7F5487F01DA0C2199E7B7F57A7F76
:10491C0001DA102194E7B7F5C86F01DA14218FE79B
:10492C00B7F5486F01DA18218AE788D11C2187E78F
:10493C00B9F1D60F01DC012189E7B9F5CD7F01DC96
:10494C00022184E740F29B1399457FF47FAF03214A
:10495C007DE72DE9F04100240C6003F1FF380124C0
:10496C00A04527DD069D52F824C0AC454FEA8406CD
:10497C0004F101051CDD164456F8046CB44517DD32
:10498C002E469E4252F82670A6EB040E354603D0F6
:10499C00BC4506F10106F4D0BC4509DD0E680E2EAF
:1049AC0006DC751C0D600EF1010540F8264025440F
:1049BC002C46D5E7BDE8F081F0B5012304468B42C7
:1049CC000FDA54F8046F1A46254655F8047CB742A2
:1049DC0003DD013A45F80479F7D140F82260013340
:1049EC00EDE7F0BD2DE9F043012390460D4643451C
:1049FC0016DA55F8046F1C4600EB8609AC46D9F85C
:104A0C0000205CF8047C964650F82720964503DD80
:104A1C00013C4CF80479F2D141F824600133E6E70B
:104A2C00BDE8F0832DE9F04104461F4610460D46C3
:104A3C000A682146FFF7D6FF4FF0FF32C7F1000E90
:104A4C00296891421DDD531C1E462B60B14216D0C5
:104A5C00501C18BF54F8220054F826C008BF10464A
:104A6C00ACEB0000B84201DC864506DD286800F19D
:104A7C000108C5F8008044F820C00136E6E71A4664
:104A8C00DEE72046BDE8F041FFF796BF37B5069D3F
:104A9C000095FFF75EFF0C46079BFFF7C3FF2268EC
:104AAC00089B9A42D4BF2260236003B030BD000043
:104ABC002DE9F04F9DB0DDE92798164600229B4664
:104ACC0005460C461346A24204DA55F82210013270
:104ADC000B44F8E78D4FB3FBF4F338460022A242A7
:104AEC0006DA55F82210591A40F8041B0132F6E781
:104AFC00864A0021136852F8040F0344506803449B
:104B0C0090681B1848BF033301319B10602942F891
:104B1C00043CEFD100237D4A9A4652F8041B0AF15B
:104B2C00010ABAF1640F0B44F7D140F6B732934245
:104B3C004FDD93FBFAFABAF13C0FA8BF4FF03C0AD9
:104B4C003C2200210DA801F00EFC04230F22CDE91C
:104B5C000132CDF800A06D4A642307A90DA8FFF718
:104B6C0095FF079B012B4FF0000235DD0DA94FF08F
:104B7C00010C0846D1F804E000680CF1010CAEEB16
:104B8C000000634501F104010244F2D1591E92FB6D
:104B9C00F1F240F2DC5191FBF2F2C9F80020012253
:104BAC005B4988F800200022A24219DB0022CDE9E3
:104BBC000822CDE90A220DAE0C92314693421BDD40
:104BCC0051F8040B642815DD524BCBF80030002350
:104BDC0092E04FF01E0AB3E74E49C9F80010DFE728
:104BEC0055F8220047F8040B56F8220041F8040B44
:104BFC000132D9E70132E1E70024013B434FDFF8F2
:104C0C0010C10494254621460593DDE90423934203
:104C1C0056DDD6F8048056F8040B1346A8EB0009B1
:104C2C000133B9F1030F0493EFDD4FF07F4E0346D0
:104C3C00F24698450EDD57F823207245C8BF9646BC
:104C4C005CF82320C8BF1C465245C4BF1D46924683
:104C5C000133EEE757F8202057F828309B1A221A18
:104C6C00534357F8202093FBF9F3134457F82520AE
:104C7C00D21A0AFB02F24FEAE21ABAF1000FC4DDB3
:104C8C000429C2DC5CF820305CF82820281AD21ADF
:104C9C00504390FBF9F018445CF825301B1A0EFBBE
:104CAC0003FE5FEAEE1EB0D01CAB03EB810864235D
:104CBC0003FB0EF2013192FBFAF248F8502CA4E7F8
:104CCC0008A8FFF779FE4A1003294FEA820318DD82
:104CDC001CA901EB820151F8543C51F8502C13449F
:104CEC0003EBD3735B10DA1EB42A3FF66DAF0A4A9E
:104CFC00D35CCBF800300123269A13701DB0BDE8AD
:104D0C00F08F1CAA134453F8503CECE798E30320B3
:104D1C0028E5032019FCFFFFCB650B0008B5024BFF
:104D2C001B689B68019308BD6802030008B5024B21
:104D3C001B68DB68019308BD6802030008B5024BD1
:104D4C001B689B68019308BD2C02030008B5024B3D
:104D5C001B68DB68019308BD2C02030008B5024BED
:104D6C001B681B69019308BD2C02030008B5024B9C
:104D7C001B685B69019308BD2C02030008B5024B4C
:104D8C001B685B68019308BD1802030008B5024B51
:104D9C001B685B69019308BD1802030008B5024B40
:104DAC001B685B6C019308BD4802030008B5024BFD
:104DBC001B685B69019308BD6402030008B5024BD4
:104DCC001B68DB68019308BD3C02030008B5024B6D
:104DDC001B681B69019308BD3C02030008B5024B1C
:104DEC001B685B69019308BD3C02030008B5024BCC
:104DFC001B689B69019308BD3C02030008B5024B7C
:104E0C001B68DB69019308BD3C02030008B5024B2B
:104E1C001B681B6A019308BD3C02030008B5024BDA
:104E2C001B689B6A019308BD3C02030008B5024B4A
:104E3C001B681B6C019308BD3C02030008B5024BB8
:104E4C001B681B68019308BD2802030008B5024BC0
:104E5C001B68DB68019308BD2802030008B5024BF0
:104E6C001B689B69019308BD2802030008B5024B1F
:104E7C001B68DB69019308BD2802030008B5024BCF
:104E8C001B681B6A019308BD2802030008B5024B7E
:104E9C001B685B6A019308BD2802030008B5024B2E
:104EAC001B689B6A019308BD2802030008B5024BDE
:104EBC001B68DB6A019308BD2802030008B5024B8E
:104ECC001B681B6B019308BD2802030008B5024B3D
:104EDC001B685B6B019308BD2802030008B5024BED
:104EEC001B681B6C019308BD2802030008B5024B1C
:104EFC001B681B6D019308BD2802030008B5024B0B
:104F0C001B68DB69019308BD3002030008B5024B36
:104F1C001B681B6A019308BD3002030008B5024BE5
:104F2C001B681B68019308BD4C02030008B5024BBB
:104F3C001B685B68019308BD4C02030008B5024B6B
:104F4C001B681B69019308BD4C02030008B5024B9A
:104F5C001B685B69019308BD4C02030008B5024B4A
:104F6C001B689B69019308BD4C02030008B5024BFA
:104F7C001B68DB69019308BD4C02030008B5024BAA
:104F8C001B681B6A019308BD4C02030008B5024B59
:104F9C001B685B68019308BD2002030008B5024B37
:104FAC001B685B69019308BD2002030008B5024B26
:104FBC001B68DB6C019308BD2002030008B5024B93
:104FCC001B685B6D019308BD2002030008B5034B01
:104FDC001B68D3F88830019308BD00002002030041
:104FEC0008B5034B1B68D3F89430019308BD00003F
:104FFC002002030008B5024B1B685B68019308BDD7
:10500C004002030008B5024B1B689B68019308BD66
:10501C004002030008B5024B1B68DB68019308BD16
:10502C004002030008B5024B1B681B69019308BDC5
:10503C004002030008B5024B1B685B69019308BD75
:10504C004002030008B5024B1B689B69019308BD25
:10505C004002030008B5024B1B68DB69019308BDD5
:10506C004002030008B5024B1B681B6A019308BD84
:10507C004002030008B5024B1B681B6B019308BD73
:10508C004002030008B5024B1B685B6B019308BD23
:10509C004002030008B5024B1B681B6C019308BD52
:1050AC004002030008B5024B1B685B6C019308BD02
:1050BC004002030008B5024B1B685B69019308BDF5
:1050CC004402030008B5024B1B681B6A019308BD20
:1050DC004402030008B5024B1B68DB6B019308BD4F
:1050EC004402030008B5024B1B681B68019308BD02
:1050FC001C02030008B5024B1B685B68019308BDDA
:10510C001C02030008B5024B1B689B68019308BD89
:10511C001C02030008B5024B1B68DB6A019308BD37
:10512C001C02030008B5024B1B681B6B019308BDE6
:10513C001C02030008B5024B1B681B6C019308BDD5
:10514C001C02030008B5024B1B685B6C019308BD85
:10515C001C020300002240681146FFF783BF0022A7
:10516C0040681146FFF78EBF40680022FFF782BFF0
:10517C004068002281F00101FFF76CBF00234068FA
:10518C001A461946FFF75EBF002340681A461946B7
:10519C00FFF750BF002240681146FFF743BF0022C3
:1051AC0040681146FFF72EBF406800220221FFF72E
:1051BC0031BF002340681A46FFF71CBF024B032285
:1051CC005A60024A1A607047B8E603208C660B00DE
:1051DC0010B5044608462170FFF790FE002363606B
:1051EC00204610BD054B02221A60054B054A9A60F9
:1051FC000020C3E90000FFF7C9BE00BFCCE60320C6
:10520C00C0E603200000FFFF2DE9F041931E8CB097
:10521C00222B4FF000030D4614468DF82C3027D965
:10522C0000282ADA2E462D2306F8013B40420A2498
:10523C000DF12B074FF001082246014601A801F0A1
:10524C0056F8029B0198092BCCBF3722302252FA18
:10525C0083F307F8013908F101080028ECD1424624
:10526C00791C304601F057F828460CB0BDE8F081A7
:10527C000A2AD5D018B12E46DAE70A24FAE73023E9
:10528C008DF82B302E460DF12A074FF00208E6E779
:10529C0010B504460068FFF72DFF204610BD10B571
:1052AC000446006808B1FFF725FF0023C4E9013369
:1052BC00236010BD38B504460D4600680131FFF778
:1052CC0021FF10B1C4E90005012038BD10B50368F9
:1052DC00044623B143688B4201D3012010BD204604
:1052EC00FFF7E8FF0028F9D0A368002BF5D122685E
:1052FC001370F2E737B50D46114601920446FFF7DD
:10530C00E5FF019A28B92046FFF7C9FF204603B0F4
:10531C0030BDA2602946206800F0FDFF2268A3681A
:10532C000021D154F2E713B5044659B10846019156
:10533C0001F06DF8019902462046FFF7DBFF20468D
:10534C0002B010BDFFF7ABFFF9E710B504468AB009
:10535C000023C4E90033A3602373084601A9FFF7B7
:10536C0053FF01A92046FFF7DEFF20460AB010BD0F
:10537C0010B58368044613B10322014698472046B2
:10538C0010BD13B50B460246D0E900016C4684E80B
:10539C00030093E8030082E8030094E8030083E829
:1053AC00030002B010BD0000024800230360FFF7A9
:1053BC00F5BC00BFD0E60320F8B506460D468F18A5
:1053CC000024BD420CD0336815F8011B9B68304695
:1053DC009847031E01DB1C44F3E7002C08BF1C4656
:1053EC002046F8BD13B50446084659B1019101F0A9
:1053FC000EF823680199DB680246204602B0BDE82E
:10540C001040184702B010BD03689B68184708B5D8
:10541C00FFF7E8FF08BD38B50D210546FFF7F4FF8F
:10542C000A2104462846FFF7EFFF204438BD38B563
:10543C000546FFF7D7FF04462846FFF7ECFF20444C
:10544C0038BDFFF7F4BF30B58BB00023012A8DF8BF
:10545C00243098BF0A2209AC0D46B1FBF2F101FBD6
:10546C00125303F0FF03092B94BF30333733DBB2F5
:10547C00AA4204F8013DEFD92146FFF7B3FF0BB068
:10548C0030BD0000014B024A1A607047D4E603207D
:10549C00C0660B00024B1A68024B1A60704700BFC3
:1054AC00BCDF0320D8E603200021FFF777BD000006
:1054BC00014B00229A607047DCE60320014B186018
:1054CC00704700BFC0DF032008B50B4B43B100F0A1
:1054DC00FFFB03681B699847002801DDAFF30080D0
:1054EC00064B43B100F094FE03681B6998470028F3
:1054FC0001DDAFF3008008BD0000000000000000DB
:10550C0008B5FFF7E1FFFFF741FC014B186008BD40
:10551C0040E703200548064A064908B5121A00F070
:10552C00FAFE054B054A1A6008BD00BF00F40320C3
:10553C0004F40320F4680B0000F403201E1C279ACB
:10554C0007B5002300931A466FF07701FFF748FD6B
:10555C0003B05DF804FB000007B543880A2B08D0A4
:10556C00502B0BD1094B1B684BB103B05DF804EB0E
:10557C001847FFF7E5FF03B05DF804FB0023009329
:10558C001A466FF07701FFF72BFDF4E7F0E60320E6
:10559C0010B512480021FFF7D5FD114B1A68114BBD
:1055AC009A42114B0CBF012200221A7001D0FFF756
:1055BC00B1FFFFF7E3FB044600F0DEFE0B4B13B12B
:1055CC002046AFF3008000210848FFF783FDBDE8BB
:1055DC00104007480021FFF7F9BC00BFC9540B006D
:1055EC0000F403201E1C279AECE6032000000000A8
:1055FC0065550B0070470020704710B5102104460C
:10560C00FEF745FD204610BD08B5FFF7F6FF08BDB7
:10561C0030B500224FF69C74026084808D888C809B
:10562C000C68858004600A6030BD10B504460068C3
:10563C00FFF760FD204610BD38B5C468F4B123787F
:10564C00022B03D104F10C00FFF7EFFF656835B1B5
:10565C002846FFF78DFE10212846FEF718FDA56899
:10566C0035B12846FFF784FE10212846FEF70FFDC2
:10567C0020461421BDE83840FEF709BD38BD0B6843
:10568C0003604B68436013B15A6801325A6070472B
:10569C0037B5044668460D46FFF7F1FF009B019AAB
:1056AC0023606260002301A801930093FEF73CFD88
:1056BC0035B1281DFEF738FD08212846FEF7E7FC1A
:1056CC00204603B030BD826810B50AB900F006FE62
:1056DC00BDE81040C368184708B5006800F1100118
:1056EC00FFF7F1FF08BD826810B50AB900F0F6FDAE
:1056FC00BDE81040C368184708B5006800F11001F8
:10570C00FFF7F1FF08BD000038B500230446036025
:10571C0010200D46FEF7B7FC28B10123C0E9013378
:10572C00024B0360C5602060204638BDE8660B0064
:10573C0038B5002383608B6804460D462BB10222DA
:10574C009847EB68E360AB68A360204638BD000067
:10575C00F0B589B004686846FFF75AFF4FF00203B2
:10576C00D4E84F2F002A03D1C4E8413F0029F7D1D8
:10577C0025D104F10C0569462846FFF749FFBFF314
:10578C005B8F01236370002004F10803BFF35B8F70
:10579C0053E8006F43E80002002AF9D1BFF35B8F96
:1057AC006EB1FFF703FC78B129463046FFF78BFF4B
:1057BC003046FFF7DDFD10213046FEF768FC6846E9
:1057CC00FFF733FF09B0F0BD314602A8FFF7B0FF79
:1057DC00E068B4F9105008B100F0FCFD0690102000
:1057EC00ADF81C50FEF74FFC0546E8B1002787606A
:1057FC001820FEF748FC044688B10146876002A8D1
:10580C00FFF7BFFD049BA268A360059B049206A949
:10581C00E268E36004F110000592FFF7F9FE084B13
:10582C00EB60084B2C60AB6006A8FFF7FEFE02A8ED
:10583C00FFF79EFD002229460348FFF7BFFBB7E7A1
:10584C00E5560B0069590B00CD5D0B002DE9F04FAF
:10585C008BB005469DF850A00F4690469946FFF731
:10586C0029FC07AE834638BB4FF62E73059005A96D
:10587C003046ADF81830FFF7CBFE1420FEF703FCD2
:10588C00044648B1022303700123C0E901BB4370F5
:10589C0031460C30FFF7BCFE2846214640F8044B3D
:1058AC00FFF732FF3046FFF7C0FE05A8FFF7BDFE3D
:1058BC0028460BB0BDE8F08F0C2300241420CDE952
:1058CC0008440793FEF7DFFB014618B1C0E9014419
:1058DC000470447004A80391FFF716FF1E4B089345
:1058EC000820FEF7D0FB044610B103A9FFF7C7FE52
:1058FC0000965FFA8AF34A46414638460994FFF708
:10590C00E1FBB8B9039B5B7803F0FF0293B94FF648
:10591C009C7305A903A80592ADF81830FFF718FF82
:10592C0005A8FFF782FE05A80999FFF7B1FE06A8A6
:10593C00FEF7FAFB03A905A8FFF7A1FE059B069A43
:10594C002B606A60002306A806930593FEF7ECFB18
:10595C0004A8FEF7E9FBABE7E5590B00012AF8B503
:10596C00054603D10B6803600020F8BD022A10D055
:10597C00032AF9D10468002CF6D004F11000FFF7CB
:10598C0054FE2046FFF7F4FC18212046FEF77FFB5F
:10599C00EAE718200E68FEF776FB044650B1314654
:1059AC00FFF7C6FE3069B6F9147008B100F012FDAD
:1059BC002061A7822C60D7E738B5002383608B6801
:1059CC0004460D462BB102229847EB68E360AB68A6
:1059DC00A360204638BD0000F0B589B004460D46E2
:1059EC0001A81146FFF754FEA4B124B21DB12846FC
:1059FC0000F0F0FC054601A803A90395ADF8104092
:105A0C00FFF7A6FE03A8FFF710FE02A8FEF78CFB1B
:105A1C0009B0F0BD019D0123D5E84F2F002A03D119
:105A2C00C5E8413F0029F7D1EFD12B73BFF35B8F52
:105A3C006B702B1DBFF35B8F53E8006F43E8004284
:105A4C00002AF9D1BFF35B8F002EDED02046FFF782
:105A5C00ADFA074660B105F10C013046FFF743FE85
:105A6C003046FFF785FC10213046FEF710FBCCE7E3
:105A7C00314603A8FFF7A0FF2B7B8DF81C301020BC
:105A8C00FEF701FB0546D0B187601420FEF7FBFA48
:105A9C00044678B18760014603A8FFF772FC059BAA
:105AAC00A268A360069B0592E268E3609DF81C3037
:105ABC0006922374064BEB60064B2C60AB6003A87C
:105ACC00FFF756FC002229460348FFF777FAC7E791
:105ADC0005570B00E95A0B00CD5D0B00012A70B580
:105AEC00044603D10B680360002070BD022A0CD061
:105AFC00032AF9D10468002CF6D02046FFF738FCB5
:105B0C0014212046FEF7C3FAEEE714200E68FEF7C8
:105B1C00BAFA054620B13146FFF74EFF337C2B74A1
:105B2C002560E1E7704710B518210446FEF7AFFA7F
:105B3C00204610BDF0B5037D062B8DB00E4600F14E
:105B4C0004074FF0000412D000F1080515F8011DF0
:105B5C000A223046FFF777FCAF42044419D0002CE0
:105B6C00F4D02E213046FFF74FFC0444EEE72F23F0
:105B7C006A4639460A208DF80040FFF717F9684647
:105B8C0000F045FC33680246DB68694630469847AE
:105B9C00044620460DB0F0BD10B5054B044611224D
:105BAC0040F8043B002100F0DEFB204610BD00BF96
:105BBC0004670B000346074A10B543F8042B01F1A8
:105BCC00100251F8044B43F8044B9142F9D10A7876
:105BDC001A7010BD04670B0010B59DF8084044EA1C
:105BEC00032343EA024242EA016104234160037544
:105BFC0010BD000007B5064B0360CB7800938B7883
:105C0C004A780978FFF7E8FF03B05DF804FB00BFA2
:105C1C0004670B00417470477047704708B500214A
:105C2C00007CFFF79BF940EAE07008BD08B5012144
:105C3C00007CFFF793F940EAE07008BD08B5007CE2
:105C4C00FFF784F920EAE07008BD08B5007CFFF787
:105C5C0075F920EAE07008BD13B50446007C01918B
:105C6C00FFF774F90028019901DC607C20B1207CDD
:105C7C00FFF77CF920EAE07002B010BD007CFFF762
:105C8C007DB910B514210446FEF701FA204610BD6B
:105C9C0010B54FF47A73044608460021C4E9011389
:105CAC00044B23600123207463741146FFF736F90B
:105CBC00204610BD18670B00007C0022FFF736B998
:105CCC0010B514220446002100F04DFB204610BDF7
:105CDC0010B50F4C88B003A8FFF7F2FF2178BFF383
:105CEC005B8F11F001010FD120460191FEF7D1F924
:105CFC00019948B103AA0748FFF7CAFF2046FEF7EF
:105D0C00CDF9054800F0EDFA024808B010BD00BF0F
:105D1C00F4E60320F8E60320255C0B007047417481
:105D2C00704708B5007CFFF779F820EAE07008BDF1
:105D3C0008B5007CFFF74AF820EAE07008BD08B50A
:105D4C00007CFFF753F840EAE07008BD08B5007C12
:105D5C00FFF744F840EAE07008BD007CFFF74EB84E
:105D6C0037B5457C04462DB1207C03B0BDE83040EE
:105D7C00FFF724B8007C0191FFF750F80028019937
:105D8C00F2DC284603B030BD10B514210446FEF7F2
:105D9C007EF9204610BD000010B54FF47A7304460E
:105DAC00084611460022C4E90123044B2360012359
:105DBC0020746374FFF73AF8204610BD48670B0057
:105DCC0010B5836804460BB900F088FAC36898478D
:105DDC00A3681BB103222146204698472046102178
:105DEC00BDE81040FEF753B97047F8B506461546A6
:105DFC000C468F18BC4206D0336814F8011B9B6804
:105E0C0030469847F6E72846F8BD007C0022FFF79D
:105E1C0035B8007C0021FFF739B8007C0021FFF772
:105E2C003DB8007C0021FFF741B8007C0021FFF752
:105E3C0045B810B514210446FEF729F9204610BDCB
:105E4C0038B5044615464FF47A730022C4E9012391
:105E5C00094B2174084623602946FFF73FF8BF30F1
:105E6C0008D16B69DB0705D56868FFF743F9E8686B
:105E7C00FFF740F9204638BD78670B00007C002204
:105E8C00FEF7DCBF0023007C1A461946FEF7DEBF86
:105E9C007FB500221423CDE90122ADF804300B7834
:105EAC008DF808304B680393CB680493007C0B7A15
:105EBC00059301A9FFF71AF807B05DF804FB1FB5AD
:105ECC00003B8DF800104FF06401039118BF0123C3
:105EDC00694601928DF80830FFF7DAFF05B05DF8DE
:105EEC0004FB0123FFF7EBBF007C0022FEF7B6BFDB
:105EFC00C9B2FFF7F9BF007C0022FEF7B7BF012142
:105F0C00FFF7F9BF002240681146FFF78BB800225B
:105F1C0040681146FFF7A6B8002240681146FFF70B
:105F2C00B1B840680022FFF7A5B84068002281F0A4
:105F3C000101FFF78FB8002340681A461946FFF796
:105F4C0081B8002340681A461946FFF773B800223F
:105F5C0040681146FFF756B8406800220221FFF74F
:105F6C0059B8002340681A46FFF744B8024B042284
:105F7C005A60024A1A6070470CE70320A0670B00B6
:105F8C00002340681A46FFF735B84068002202210A
:105F9C00FFF740B8002240681146FFF733B80022E3
:105FAC0040681146FFF73EB8002340681A46194670
:105FBC00FFF740B8002340681A461946FFF742B86D
:105FCC0040680021FFF766B840680021FFF76AB807
:105FDC004068002281F00101FFF73CB840680022C4
:105FEC00FFF748B8002240681146FFF74BB8002273
:105FFC0040681146FFF736B82DE9F04395B01446CA
:10600C000D460746FFF7C8FD00211C220DA8009184
:10601C0000F0A9F940230C9320466B460CAA0021F2
:10602C00FEF784FE044600284BD102460121686825
:10603C00FEF7F8FF0221804622466868FEF7F2FF61
:10604C00009E81462146002E3BD0002939D1736831
:10605C00022B03D00A2B11D0F669F4E7B8F1000F2C
:10606C00FAD0716906A8043107ADFFF7C3FD0FCD57
:10607C003C1D0FC42B6823704146EDE7B9F1000FAE
:10608C00EAD07469102201A800F06DF906238DF88E
:10609C00143001AD04F108031834186859682A4605
:1060AC0003C20833A3421546F7D101A906A807ADD0
:1060BC00FFF780FD0FCD3C1D0FC42B6823704946A4
:1060CC00CAE70098FEF72AFE384615B0BDE8F08303
:1060DC00024B034A1A6000225A60704714E70320EF
:1060EC00DC670B00232813B502D9002002B010BDC9
:1060FC00A0F10B03022B1AD8174C2178BFF35B8F3E
:10610C0011F001010BD120460191FDF7C2FF01995D
:10611C0028B11248FFF75CF82046FDF7BFFF0F4B84
:10612C001878FEF7F3FE0028DFD10120DEE7012806
:10613C0009D800F0ADF80021007CFEF7C7FE80F016
:10614C000100C0B2D2E709380128EED800F060F89F
:10615C00007CFEF75BFEF2E71CE7032020E7032040
:10616C00232838B504460D460AD8FF2908D0FFF776
:10617C00B9FF28B129462046BDE83840FEF7DEBD00
:10618C0038BD38B504460D46FEF7E0FDFF2810D0AB
:10619C00062804D84D2323FA00F0C30709D420465F
:1061AC00FFF7A0FF28B129462046BDE83840FEF78E
:1061BC00D5BD38BD10B50446FEF7C8FD031FDBB2D4
:1061CC00012B08D92046FFF78DFF20B12046BDE8F2
:1061DC001040FEF7CBBD002010BD704738B504460B
:1061EC0014252A46002100F0BEF8258040250749D9
:1061FC0025812846258200F06FF804496060284606
:10620C0000F06AF8E060204638BD00BF10680B0053
:10621C0030B50E4D2978BFF35B8F11F0010487B0B8
:10622C0011D12846FDF735FF68B101A8FFF7D6FF5D
:10623C0001AA21460648FFF7AFFD2846FDF72EFFC1
:10624C00044800F04EF8024807B030BD28E70320A0
:10625C002CE70320E7610B007047000038B50A4BB0
:10626C0003600123044643610849202000F034F800
:10627C00202560600549A560284600F02DF8C4E98A
:10628C000305204638BD00BF1800010010680B0044
:10629C0030B50E4D2978BFF35B8F11F0010487B038
:1062AC0011D12846FDF7F5FE68B16846FFF7D6FF19
:1062BC006A4621460648FFF7C3FD2846FDF7EEFE69
:1062CC00044800F00EF8024807B030BD44E7032044
:1062DC0048E7032065620B00FDF7D7BE08B5FEF753
:1062EC0019FF002301461A46184600F099B80029F8
:1062FC0010B591FBF2F402FB141306DB002B01DA50
:10630C0001349B1AC0E9004310BD002BC4BF04F13B
:10631C00FF349B18F6E70A44914200F1FF3300D199
:10632C00704710B511F8014B03F8014F9142F9D1A8
:10633C0010BD884210B501EB020402D984422346F9
:10634C0007D8431EA14208D011F8012B03F8012FE6
:10635C00F8E7024401468A4200D110BD13F8014D02
:10636C0002F8014DF7E702440346934200D170470F
:10637C0003F8011BF9E7000038B5104B1D68AB6B37
:10638C000446B3B91820FEF7ADFE0246A86320B947
:10639C000B4B0C484221FEF7CDFE0B490B4BC0E9D1
:1063AC0000130B4B83600B23838100210120C2E976
:1063BC000401AB6B00221C615A6138BDC0DF0320A5
:1063CC0011680B0028680B000E33CDAB34126DE650
:1063DC00ECDE0500024B0146186800F003B800BF64
:1063EC00C0DF032037B5044608460D4600F00FF811
:1063FC00421C114620460192FEF794FE044618B149
:10640C00019A2946FFF787FF204603B030BD0346AB
:10641C0013F8012B002AFBD1181A01387047000021
:10642C002DE9F843DFF8B8800646D8F800001F467F
:10643C000D46914600F056F8254B1C6834B9254C96
:10644C001C60254B13B11B68C4F8883063681F2B84
:10645C0007DDD8F8000000F047F84FF0FF30BDE83A
:10646C00F8834EB3D4F8880088B91C4B23B9D8F8FC
:10647C00000000F038F8F0E74FF48470FEF732FEBD
:10648C000028F4D00023C0E94033C4F888006368C6
:10649C0040F8239001229A4000EB8301D0F80031A0
:1064AC001343C0F80031022EC1F8807002BFD0F83F
:1064BC0004311343C0F804316368D8F800005A1C47
:1064CC000233626044F8235000F00EF80020C6E757
:1064DC00E8E703205CE7032000000000F1500B000C
:1064EC0024E0032070477047704700001D400B00EC
:1064FC0059400B0081400B0085400B000000000050
:10650C004D4158333031303520776173206E6F74C4
:10651C0020666F756E642E20506C65617365206308
:10652C006865636B20776972696E672F706F77652A
:10653C00722E004174746163682073656E736F72A0
:10654C0020746F2066696E676572207769746820A5
:10655C007275626265722062616E642E2050726583
:10656C00737320616E79206B657920746F2073745E
:10657C0061727420636F6E76657273696F6E0072F0
:10658C0065643D002C2069723D002C2048523D0072
:10659C002C20485276616C69643D002C2053504F7E
:1065AC00323D002C2053504F3256616C69643D00D3
:1065BC006865617274526174650073703032005F8B
:1065CC005F5F6060606161616161626262626263AF
:1065DC006363636363636364646464646464646476
:1065EC006464646464646464646464636363636364
:1065FC006363636262626262626161616160606076
:10660C00605F5F5F5E5E5E5D5D5D5C5C5C5B5B5AAC
:10661C005A59595958585757565655555454535208
:10662C0052515150504F4E4E4D4C4C4B4A4A49488A
:10663C0048474645454443424241403F3E3E3D3C2F
:10664C003B3A39383837363534333231302F2E2DFA
:10665C002C2B2A2928272625242322211F1E1D1CEA
:10666C001B1A19171615141311100F0E0C0B0A09FF
:10667C0007060503020100000000000000000000F6
:10668C00BF510B00B5510B00AB510B00A1510B00CE
:10669C0095510B0089510B00CD5F0B00D55F0B00A2
:1066AC007D510B0075510B006B510B0061510B00B0
:1066BC0005600B006170700025592D256D2D25642A
:1066CC005425483A254D3A2553257A006173637455
:1066DC00696D6500000000000000000001560B0011
:1066EC0007560B0045560B0015560B0003560B00B6
:1066FC000000000000000000415B0B00315B0B0050
:10670C00335B0B000000000000000000275C0B0056
:10671C008F5C0B00655C0B00C5530B00575C0B00CA
:10672C00295C0B00395C0B00895C0B00495C0B008D
:10673C00215C0B000000000000000000295D0B0034
:10674C00955D0B006D5D0B00C5530B003D5D0B00A3
:10675C00595D0B004B5D0B00675D0B002B5D0B0057
:10676C002F5D0B000000000000000000F55D0B0029
:10677C003F5E0B00175E0B00F75D0B001F5E0B00FE
:10678C00275E0B002F5E0B00375E0B000000000035
:10679C00000000006F5F0B00655F0B005B5F0B0080
:1067AC00115F0B004F5F0B00435F0B00CD5F0B00C5
:1067BC00D55F0B00375F0B002F5F0B00255F0B00C5
:1067CC001B5F0B0005600B000000000000000000C8
:1067DC008D5F0B00975F0B00A15F0B00AB5F0B0095
:1067EC00B55F0B00C15F0B00CD5F0B00D55F0B00DD
:1067FC00DD5F0B00E95F0B00F15F0B00FB5F0B0033
:10680C0005600B00005245454E54206D616C6C6F59
:10681C006320737563636565646564002F6D6E74C6
:10682C002F776F726B73706163652F776F726B73F9
:10683C00706163652F4743432D31302D706970654E
:10684C006C696E652F6A656E6B696E732D47434379
:10685C002D31302D706970656C696E652D34385F23
:10686C0032303230313132345F31363036313830CB
:10687C003634312F7372632F6E65776C69622F6EAD
:10688C0065776C69622F6C6962632F7374646C69D1
:10689C00622F72616E642E630000000035440B00A1
:1068AC00C9510B00F1510B00B5530B0091540B0067
:1068BC00A1540B00BD540B00795F0B00DD600B0085
:0468CC0000000000C8
:1068D000040000001400000003000000474E5500B3
:1068E00047F06F5D2CF28E094B7454D7D7034B5A87
:0468F00032F6680014
:0468F40000000000A0
:1068F8000B0D0000D8660B00C4DF03200000000069
:10690800000000000000000000000000000000007F
:10691800000000000000000000000000000000006F
:10692800000000000000000000000000000000005F
:10693800000000000000000000000000000000004F
:10694800000000000000000000000000000000003F
:10695800000000000000000000000000ECE7032039
:10696800FFFFFFFF00000102030405060708090AEC
:106978000B0C0D0E0F101112131415161718191AE7
:086988001B1C1D1E1F2028002E
:0469900078563412EF
:04000003B000401CED
:00000001FF
