:02000002B0004C
:1040000000400B00E6600B00000006000C000502FB
:0840100004018C130000000004
:044018007C5C0B00C1
:10401C00034613F8012B002AFBD1181A01387047FC
:10402C0009480A49884208B505D0094A824202D09B
:10403C00121A01F059FD0748074A0021121A01F023
:10404C007BFD014808BD00BFBCDF032048600B00AE
:10405C002CE003202CE00320F0E7032070B5074E82
:10406C00074C01F051F9A41BA4080025AC4200D167
:10407C0070BD56F8043B98470135F7E700600B001C
:10408C0024600B0000F014B808B500F05FF8BDE830
:10409C00084001F0F1B800F0C9BF00F0CFBF0078C4
:1040AC00B0FA80F04009704701230370704700009C
:1040BC001FB501F031FA4FF4E13101F021FA1D4B3B
:1040CC000121187801F050FC1B4B0121187801F0EC
:1040DC004BFC01F0DDFC194A01465723184800F04F
:1040EC008DFA28B901F018FA164901F066F8FEE7C6
:1040FC0001F012FA144901F060F801F00DFA0368AE
:10410C001B6998470028F8D001F006FA03685B6930
:10411C00984740F29B134FF48052CDE9013264234F
:10412C0000930748022304223C2100F027FB05B032
:10413C005DF804FBBCDF0320BDDF0320801A060002
:10414C00C4E10320905C0B00C35C0B002DE9F04F25
:10415C00864E874DDFF82CA2DFF82C92642387B0B3
:10416C00336000273168FCB28C4232DA284600F00A
:10417C002AF918B9284600F068F9F7E7284600F044
:10418C0019FA4AF82400284600F020FA49F82400CD
:10419C00284600F025F901F0BFF9764900F0F3FF4D
:1041AC0001F0BAF90A225AF8241001F008F801F0CB
:1041BC00B3F9714900F0E7FF01F0AEF959F824109A
:1041CC0080460A2200F0FBFF404600F0E0FF01377A
:1041DC00C8E7DFF8D491DFF8D481684F684B694A9F
:1041EC00CDF80890CDF8048000976748DFF8C0B18F
:1041FC00DFF8C0A15E4D00F01FFC64494FF49672CD
:10420C00A1F1640001F07EFC61494FF49672A1F1BA
:10421C00640001F077FC19230493284600F0D3F8CE
:10422C0018B9284600F011F9F7E75A4B1C782046CC
:10423C0001F0C4FBB0FA80F14909204601F0A5FB5E
:10424C00284600F0B7F9CBF80000284600F0BEF97C
:10425C00CAF80000284600F0C3F801F05DF94549A2
:10426C0000F091FF01F058F90A225BF8041B00F0F2
:10427C00A6FF01F051F9404900F085FF01F04CF91F
:10428C000A225AF8041B00F09AFF01F045F9424942
:10429C0000F079FF01F040F9D8F80020002A04461C
:1042AC005CDA2D21059200F06BFF059A51420A222F
:1042BC00204600F084FF01F02FF9384900F063FF2D
:1042CC0001F02AF999F90020002A044648DA2D2138
:1042DC00059200F055FF059A51420A22204600F043
:1042EC006EFF01F019F92E4900F04DFF01F014F9A1
:1042FC00234A1268002A044634DA2D21059200F074
:10430C003FFF059A51420A22204600F058FF01F067
:10431C0003F9244900F037FF01F0FEF897F900206B
:10432C00002A044620DA2D21059200F029FF059A77
:10433C0051420A22204600F042FF204600F027FF9F
:10434C00049B5C1E14F0FF0304937FF466AFCDE96D
:10435C0001890B4B0B4A3168009746E71146A6E7DB
:10436C001146BAE71146CEE71146E2E72CE00320EE
:10437C00C4E103200F5D0B00145D0B0095E30320DB
:10438C0090E3032000E2032034E0032064E20320E6
:10439C0098E00320BDDF03201A5D0B00205D0B00AD
:1043AC002B5D0B00335D0B0094E3032030E0032006
:1043BC002CE3032060E10320014800F003B800BFA8
:1043CC00C4E10320704790F8383090F83900181A7F
:1043DC00C3B240B20028BCBF181D40B2C0B2704777
:1043EC0008B50246FFF7EFFF30B192F839300133D0
:1043FC0003F0030382F8393008BD70B50446006839
:10440C0016460D4601F074F92068036831469B6826
:10441C0098470021206801F072F920680122294692
:10442C0001F063F9206803681B69984720B1206884
:10443C0003685B699847C0B270BD01790422FFF72D
:10444C00DCBF01790622FFF7D8BF2DE9F7430446FC
:10445C00FFF7F7FF05462046FFF7EFFF854200F018
:10446C008E80451B4FF057012068667948BF203578
:10447C0001F042F92068036807219B68984720687F
:10448C0001F041F96E4306EB46064FF020084FF061
:10449C000009002E74DD202EC8BF62792068C9BFC8
:1044AC0002EB42023746B8FBF2F757433A46572124
:1044BC00F61B01F01AF9002FEBDD94F83830206868
:1044CC008DF80790013303F0030384F83830036848
:1044DC005B6998478DF80600206803685B6998470C
:1044EC008DF80500206803685B69984794F83830AC
:1044FC008DF80400019A0233C2F3110244F8232010
:10450C006379012B19D9206803685B6998478DF88A
:10451C000600206803685B6998478DF805002068E1
:10452C0003685B69984794F838308DF80400019A59
:10453C000633C2F3110244F823206379022B19D9F4
:10454C00206803685B6998478DF80600206803684B
:10455C005B6998478DF80500206803685B6998478C
:10456C0094F838308DF80400019A0A33C2F3110222
:10457C0044F823206379A3EB83031F449BE70025B6
:10458C00A8B203B0BDE8F08370B505460E4600F046
:10459C00C1FB044600F0BEFB001BB04208D8284605
:1045AC00FFF753FF012804D0012000F039FEF1E79A
:1045BC00002070BD10B5FA210446FFF7E5FF20B1CD
:1045CC0094F83830023354F8230010BD10B5FA219A
:1045DC000446FFF7D9FF20B194F83830063354F86D
:1045EC00230010BD0179FF22FFF707BF10B5FE2293
:1045FC0001790446FFF701FFA07110BD37B50446E1
:10460C00084621601D46019201F040F8019920688E
:10461C0001F038F825712046FFF7E4FF152805D185
:10462C002046FFF7E3FF012003B030BD0020FBE77D
:10463C0070B50446006816461D4601F059F820680E
:10464C00036831469B6898472068036829469B6835
:10465C0098472068BDE8704001F055B80B460C2215
:10466C000179FFF7E5BF0B460D220179FFF7E0BF9B
:10467C000B460E220179FFF7DBBF0B4610220179A6
:10468C00FFF7D6BF10B50446017900230422FFF7CB
:10469C00CFFF2179204600230522FFF7C9FF21799E
:1046AC0020460023BDE810400622FFF7C1BF2DE9CC
:1046BC00F0410D4617460A46017904461E46FFF79F
:1046CC009CFE384046EA000321792A462046BDE884
:1046DC00F041FFF7ADBF38B5BF2240230921044696
:1046EC00FFF7E5FF00F016FB054600F013FB401B3F
:1046FC0063280AD8217909222046FFF77EFE43065B
:10470C0003D5012000F08CFDEFE738BD0B46F822F5
:10471C000921FFF7CCBF0B469F220A21FFF7C7BF29
:10472C000B46E3220A21FFF7C2BF0B46FC220A21EB
:10473C00FFF7BDBF01391346032914D8DFE801F098
:10474C0002060B0EF8221121FFF7B1BF1B0103F07B
:10475C00F0038F22F7E7F8221221F5E71B0103F093
:10476C00F0038F22F8E770470B461F220821FFF752
:10477C009EBF1023EF220821FFF799BF2DE9F047C8
:10478C001546DDE90879DDF828A0044688461E4662
:10479C00FFF7A1FF012D49D100212046FFF7E4FFCF
:1047AC002046FFF7E6FF032E54D107212046FFF7E2
:1047BC00ADFFBAF5805F667151DA00212046FFF734
:1047CC00AAFF632F58DC00212046FFF7A9FFB9F19F
:1047DC00750F71DC00212046FFF7A7FF41462046EC
:1047EC00FFF73CFF41462046FFF73DFF4146204680
:1047FC00FFF73EFF41462046FFF73FFF01221146DF
:10480C002046FFF797FF012E0BD9022211462046B6
:10481C00FFF790FF022E04D0032211462046FFF72B
:10482C0089FF2046BDE8F047FFF72CBF022D01D1D0
:10483C002021B2E7042D01D14021AEE7082D01D192
:10484C006021AAE7102D01D18021A6E7202DF3D1FC
:10485C00A021A2E7022E0CBF03210221A6E7BAF584
:10486C00005F01DA2021A9E7BAF5804F01DA402177
:10487C00A4E7A2D16021A1E7C72F01DC0421A3E7A3
:10488C00B7F5C87F01DA08219EE7B7F5487F01DA52
:10489C000C2199E7B7F57A7F01DA102194E7B7F587
:1048AC00C86F01DA14218FE7B7F5486F01DA1821C8
:1048BC008AE788D11C2187E7B9F1D60F01DC0121E9
:1048CC0089E7B9F5CD7F01DC022184E740F29B1327
:1048DC0099457FF47FAF03217DE72DE9F04100245A
:1048EC000C6003F1FF380124A04527DD069D52F82A
:1048FC0024C0AC454FEA840604F101051CDD1644C6
:10490C0056F8046CB44517DD2E469E4252F82670BC
:10491C00A6EB040E354603D0BC4506F10106F4D0D7
:10492C00BC4509DD0E680E2E06DC751C0D600EF103
:10493C00010540F8264025442C46D5E7BDE8F0811A
:10494C00F0B5012304468B420FDA54F8046F1A4673
:10495C00254655F8047CB74203DD013A45F8047945
:10496C00F7D140F822600133EDE7F0BD2DE9F043BB
:10497C00012390460D46434516DA55F8046F1C4644
:10498C0000EB8609AC46D9F800205CF8047C96460E
:10499C0050F82720964503DD013C4CF80479F2D100
:1049AC0041F824600133E6E7BDE8F0832DE9F041DE
:1049BC0004461F4610460D460A682146FFF7D6FFEF
:1049CC004FF0FF32C7F1000E296891421DDD531CD8
:1049DC001E462B60B14216D0501C18BF54F8220052
:1049EC0054F826C008BF1046ACEB0000B84201DCFE
:1049FC00864506DD286800F10108C5F8008044F8FA
:104A0C0020C00136E6E71A46DEE72046BDE8F04155
:104A1C00FFF796BF37B5069D0095FFF75EFF0C4676
:104A2C00079BFFF7C3FF2268089B9A42D4BF226002
:104A3C00236003B030BD00002DE9F04F9DB0DDE9DF
:104A4C002798164600229B4605460C461346A24262
:104A5C0004DA55F8221001320B44F8E78D4FB3FB02
:104A6C00F4F338460022A24206DA55F82210591AFD
:104A7C0040F8041B0132F6E7864A0021136852F80D
:104A8C00040F03445068034490681B1848BF033359
:104A9C0001319B10602942F8043CEFD100237D4A80
:104AAC009A4652F8041B0AF1010ABAF1640F0B443E
:104ABC00F7D140F6B73293424FDD93FBFAFABAF1D5
:104ACC003C0FA8BF4FF03C0A3C2200210DA801F07E
:104ADC0033F804230F22CDE90132CDF800A06D4A42
:104AEC00642307A90DA8FFF795FF079B012B4FF037
:104AFC00000235DD0DA94FF0010C0846D1F804E099
:104B0C0000680CF1010CAEEB0000634501F10401EF
:104B1C000244F2D1591E92FBF1F240F2DC5191FBAE
:104B2C00F2F2C9F8002001225B4988F8002000222B
:104B3C00A24219DB0022CDE90822CDE90A220DAEF2
:104B4C000C92314693421BDD51F8040B642815DDA1
:104B5C00524BCBF80030002392E04FF01E0AB3E723
:104B6C004E49C9F80010DFE755F8220047F8040B4E
:104B7C0056F8220041F8040B0132D9E70132E1E783
:104B8C000024013B434FDFF810C104942546214615
:104B9C000593DDE90423934256DDD6F8048056F8DC
:104BAC00040B1346A8EB00090133B9F1030F04936E
:104BBC00EFDD4FF07F4E0346F24698450EDD57F879
:104BCC0023207245C8BF96465CF82320C8BF1C46FC
:104BDC005245C4BF1D4692460133EEE757F82020DC
:104BEC0057F828309B1A221A534357F8202093FB6E
:104BFC00F9F3134457F82520D21A0AFB02F24FEAB4
:104C0C00E21ABAF1000FC4DD0429C2DC5CF82030D2
:104C1C005CF82820281AD21A504390FBF9F018445B
:104C2C005CF825301B1A0EFB03FE5FEAEE1EB0D0BB
:104C3C001CAB03EB8108642303FB0EF2013192FBE6
:104C4C00FAF248F8502CA4E708A8FFF779FE4A10AE
:104C5C0003294FEA820318DD1CA901EB820151F8EC
:104C6C00543C51F8502C134403EBD3735B10DA1EF5
:104C7C00B42A3FF66DAF0A4AD35CCBF8003001235F
:104C8C00269A13701DB0BDE8F08F1CAA134453F87C
:104C9C00503CECE798E3032028E5032019FCFFFFC8
:104CAC00405D0B0008B5024B1B689B68019308BD67
:104CBC006802030008B5024B1B68DB68019308BD52
:104CCC006802030008B5024B1B689B68019308BD82
:104CDC002C02030008B5024B1B68DB68019308BD6E
:104CEC002C02030008B5024B1B681B69019308BD1D
:104CFC002C02030008B5024B1B685B69019308BDCD
:104D0C002C02030008B5024B1B685B68019308BDBD
:104D1C001802030008B5024B1B685B69019308BDC0
:104D2C001802030008B5024B1B685B6C019308BDAD
:104D3C004802030008B5024B1B685B69019308BD70
:104D4C006402030008B5024B1B68DB68019308BDC5
:104D5C003C02030008B5024B1B681B69019308BD9C
:104D6C003C02030008B5024B1B685B69019308BD4C
:104D7C003C02030008B5024B1B689B69019308BDFC
:104D8C003C02030008B5024B1B68DB69019308BDAC
:104D9C003C02030008B5024B1B681B6A019308BD5B
:104DAC003C02030008B5024B1B689B6A019308BDCB
:104DBC003C02030008B5024B1B681B6C019308BD39
:104DCC003C02030008B5024B1B681B68019308BD2D
:104DDC002802030008B5024B1B68DB68019308BD71
:104DEC002802030008B5024B1B689B69019308BDA0
:104DFC002802030008B5024B1B68DB69019308BD50
:104E0C002802030008B5024B1B681B6A019308BDFE
:104E1C002802030008B5024B1B685B6A019308BDAE
:104E2C002802030008B5024B1B689B6A019308BD5E
:104E3C002802030008B5024B1B68DB6A019308BD0E
:104E4C002802030008B5024B1B681B6B019308BDBD
:104E5C002802030008B5024B1B685B6B019308BD6D
:104E6C002802030008B5024B1B681B6C019308BD9C
:104E7C002802030008B5024B1B681B6D019308BD8B
:104E8C002802030008B5024B1B68DB69019308BDBF
:104E9C003002030008B5024B1B681B6A019308BD66
:104EAC003002030008B5024B1B681B68019308BD58
:104EBC004C02030008B5024B1B685B68019308BDEC
:104ECC004C02030008B5024B1B681B69019308BD1B
:104EDC004C02030008B5024B1B685B69019308BDCB
:104EEC004C02030008B5024B1B689B69019308BD7B
:104EFC004C02030008B5024B1B68DB69019308BD2B
:104F0C004C02030008B5024B1B681B6A019308BDD9
:104F1C004C02030008B5024B1B685B68019308BD8B
:104F2C002002030008B5024B1B685B69019308BDA6
:104F3C002002030008B5034B1B68D3F8883001939B
:104F4C0008BD00002002030008B5034B1B68D3F812
:104F5C009430019308BD00002002030008B5024BF9
:104F6C001B685B68019308BD4002030008B5024B47
:104F7C001B689B68019308BD4002030008B5024BF7
:104F8C001B68DB68019308BD4002030008B5024BA7
:104F9C001B681B69019308BD4002030008B5024B56
:104FAC001B685B69019308BD4002030008B5024B06
:104FBC001B689B69019308BD4002030008B5024BB6
:104FCC001B68DB69019308BD4002030008B5024B66
:104FDC001B681B6A019308BD4002030008B5024B15
:104FEC001B681B6B019308BD4002030008B5024B04
:104FFC001B685B6B019308BD4002030008B5024BB4
:10500C001B681B6C019308BD4002030008B5024BE2
:10501C001B685B6C019308BD4002030008B5024B92
:10502C001B68DB6B019308BD4402030008B5024BFF
:10503C001B681B68019308BD1C02030008B5024BDA
:10504C001B685B68019308BD1C02030008B5024B8A
:10505C001B681B6C019308BD1C02030008B5024BB6
:10506C001B685B6C019308BD1C02030000224068A6
:10507C001146FFF7ABBF002240681146FFF7B6BFE1
:10508C0040680022FFF7AABF4068002281F00101AE
:10509C00FFF794BF002340681A461946FFF786BFF6
:1050AC00002340681A461946FFF778BF0022406873
:1050BC001146FFF76BBF002240681146FFF756BF41
:1050CC00406800220221FFF759BF002340681A46AE
:1050DC00FFF744BF024B03225A60024A1A60704722
:1050EC00B8E60320005E0B0010B50446084621709C
:1050FC00FFF7C8FE00236360204610BD054B02225B
:10510C001A60054B054A9A600020C3E90000FFF7BE
:10511C0001BF00BFCCE60320C0E603200000FFFF68
:10512C00024800230360FFF7FDBD00BFD0E603205B
:10513C00F8B506460D468F180024BD420CD03368D6
:10514C0015F8011B9B6830469847031E01DB1C4475
:10515C00F3E7002C08BF1C462046F8BD13B50446E7
:10516C00084659B10191FEF753FF23680199DB689A
:10517C000246204602B0BDE81040184702B010BDF0
:10518C0003689B68184708B5FFF7E8FF08BD38B5FA
:10519C000D210546FFF7F4FF0A2104462846FFF7C8
:1051AC00EFFF204438BD38B50546FFF7D7FF04465E
:1051BC002846FFF7ECFF204438BDFFF7F4BF30B5AD
:1051CC008BB00023012A8DF8243098BF0A2209AC39
:1051DC000D46B1FBF2F101FB125303F0FF03092B57
:1051EC0094BF30333733DBB2AA4204F8013DEFD918
:1051FC002146FFF7B3FF0BB030BD0000014B024A54
:10520C001A607047D4E60320345E0B00024B1A6818
:10521C00024B1A60704700BFC0DF0320D8E60320A2
:10522C000021FFF77FBE0000014B00229A607047FF
:10523C00DCE60320014B1860704700BFC4DF03207D
:10524C0008B50B4B43B100F067F903681B6998472D
:10525C00002801DDAFF30080064B43B100F0DCFB0E
:10526C0003681B699847002801DDAFF3008008BD77
:10527C00000000000000000008B5FFF7E1FFFFF799
:10528C0049FD014B186008BD40E703200548064A5C
:10529C00064908B5121A00F027FC054B054A1A609E
:1052AC0008BD00BF00F4032004F40320B8600B0019
:1052BC0000F403201E1C279A07B5002300931A46FE
:1052CC006FF07701FFF740FE03B05DF804FB0000C0
:1052DC0007B543880A2B08D0502B0BD1094B1B6800
:1052EC004BB103B05DF804EB1847FFF7E5FF03B0D3
:1052FC005DF804FB002300931A466FF07701FFF76B
:10530C0023FEF4E7F0E6032010B512480021FFF766
:10531C00A5FE114B1A68114B9A42114B0CBF01227E
:10532C0000221A7001D0FFF7B1FFFFF7EBFC044627
:10533C0000F00AFC0B4B13B12046AFF300800021A8
:10534C000848FFF76BFEBDE8104007480021FFF747
:10535C00F1BD00BF41520B0000F403201E1C279A24
:10536C00ECE6032000000000DD520B00704710B586
:10537C0018210446FEF791FE204610BDF0B5037DC2
:10538C00062B8DB00E4600F104074FF0000412D02E
:10539C0000F1080515F8011D0A223046FFF70FFF32
:1053AC00AF42044419D0002CF4D02E213046FFF724
:1053BC00E7FE0444EEE72F236A4639460A208DF8AF
:1053CC000040FFF7B7FC6846FEF722FE3368024642
:1053DC00DB68694630469847044620460DB0F0BD60
:1053EC0010B5054B0446112240F8043B002100F097
:1053FC00A3FB204610BD00BF5C5E0B000346074AB2
:10540C0010B543F8042B01F1100251F8044B43F88A
:10541C00044B9142F9D10A781A7010BD5C5E0B00F6
:10542C0010B59DF8084044EA032343EA024242EADD
:10543C00016104234160037510BD000007B5064BE4
:10544C000360CB7800938B784A780978FFF7E8FFF4
:10545C0003B05DF804FB00BF5C5E0B004174704749
:10546C007047704708B50021007CFFF73BFD40EA10
:10547C00E07008BD08B50121007CFFF733FD40EA60
:10548C00E07008BD08B5007CFFF724FD20EAE07051
:10549C0008BD08B5007CFFF715FD20EAE07008BDDB
:1054AC0013B50446007C0191FFF714FD0028019907
:1054BC0001DC607C20B1207CFFF71CFD20EAE07051
:1054CC0002B010BD007CFFF71DBD10B514210446C1
:1054DC00FEF7E3FD204610BD10B54FF47A73044679
:1054EC0008460021C4E90113044B236001232074F6
:1054FC0063741146FFF7D6FC204610BD705E0B009E
:10550C00007C0022FFF7D6BC10B514220446002103
:10551C0000F012FB204610BD10B50F4C88B003A84C
:10552C00FFF7F2FF2178BFF35B8F11F001010FD170
:10553C0020460191FEF7B3FD019948B103AA074833
:10554C00FFF7CAFF2046FEF7AFFD054800F0C6FA8C
:10555C00024808B010BD00BFF4E60320F8E60320B3
:10556C006D540B0070474174704708B5007CFFF711
:10557C0019FC20EAE07008BD08B5007CFFF7EAFBD7
:10558C0020EAE07008BD08B5007CFFF7F3FB40EAA9
:10559C00E07008BD08B5007CFFF7E4FB40EAE07062
:1055AC0008BD007CFFF7EEBB37B5457C04462DB13A
:1055BC00207C03B0BDE83040FFF7C4BB007C0191F8
:1055CC00FFF7F0FB00280199F2DC284603B030BD50
:1055DC0010B514210446FEF760FD204610BD0000F6
:1055EC0010B54FF47A730446084611460022C4E9FC
:1055FC000123044B2360012320746374FFF7DAFB4F
:10560C00204610BDA05E0B007047F8B50646154647
:10561C000C468F18BC4206D0336814F8011B9B68EB
:10562C0030469847F6E72846F8BD007C0022FFF785
:10563C00E9BB007C0021FFF7EDBB007C0021FFF7EC
:10564C00F1BB007C0021FFF7F5BB007C0021FFF7CC
:10565C00F9BB10B514210446FEF71FFD204610BD02
:10566C0010B54FF47A73044608460021C4E90113BF
:10567C00034B236020741146FFF7F4FB204610BD4A
:10568C00D05E0B00007C0022FFF79CBB0023007C4B
:10569C001A461946FFF79EBB7FB500221423CDE9AD
:1056AC000122ADF804300B788DF808304B68039369
:1056BC00CB680493007C0B7A059301A9FFF7DAFB06
:1056CC0007B05DF804FB1FB5003B8DF800104FF0E0
:1056DC006401039118BF0123694601928DF80830CB
:1056EC00FFF7DAFF05B05DF804FB0123FFF7EBBF12
:1056FC00007C0022FFF776BBC9B2FFF7F9BF007C34
:10570C000022FFF777BB0121FFF7F9BF00224068A9
:10571C001146FFF73BBC002240681146FFF756BC10
:10572C00002240681146FFF761BC40680022FFF779
:10573C0055BC4068002281F00101FFF73FBC0023FB
:10574C0040681A461946FFF731BC002340681A46D8
:10575C001946FFF723BC002240681146FFF706BC30
:10576C00406800220221FFF709BC002340681A465A
:10577C00FFF7F4BB024B04225A60024A1A607047CE
:10578C000CE70320F85E0B00002340681A46FFF775
:10579C00E5BB406800220221FFF7F0BB0022406805
:1057AC001146FFF7E3BB002240681146FFF7EEBB42
:1057BC00002340681A461946FFF7F0BB00234068E7
:1057CC001A461946FFF7F2BB40680021FFF716BCDA
:1057DC0040680021FFF71ABC4068002281F00101EB
:1057EC00FFF7ECBB40680022FFF7F8BB00224068D3
:1057FC001146FFF7FBBB002240681146FFF7E6BBE2
:10580C002DE9F04395B014460D460746FFF7E8FD29
:10581C0000211C220DA8009100F08EF940230C935E
:10582C0020466B460CAA0021FFF744FA04460028D8
:10583C004BD1024601216868FFF7A8FB0221804684
:10584C0022466868FFF7A2FB009E81462146002E87
:10585C003BD0002939D17368022B03D00A2B11D00D
:10586C00F669F4E7B8F1000FFAD0716906A80431B3
:10587C0007ADFFF7E3FD0FCD3C1D0FC42B68237064
:10588C004146EDE7B9F1000FEAD07469102201A886
:10589C0000F052F906238DF8143001AD04F1080321
:1058AC001834186859682A4603C20833A3421546AF
:1058BC00F7D101A906A807ADFFF7A0FD0FCD3C1D40
:1058CC000FC42B6823704946CAE70098FFF7EAF922
:1058DC00384615B0BDE8F083024B034A1A6000222B
:1058EC005A60704714E70320345F0B00232813B56C
:1058FC0002D9002002B010BDA0F10B03022B1AD864
:10590C00174C2178BFF35B8F11F001010BD12046AE
:10591C000191FEF7C4FB019928B11248FFF7E4FB93
:10592C002046FEF7C1FB0F4B1878FFF7B3FA00289F
:10593C00DFD10120DEE7012809D800F0A9F8002109
:10594C00007CFFF787FA80F00100C0B2D2E709387B
:10595C000128EED800F060F8007CFFF71BFAF2E7A4
:10596C001CE7032020E70320232838B504460D4606
:10597C000AD8FF2908D0FFF7B9FF28B129462046DD
:10598C00BDE83840FFF79EB938BD38B504460D4622
:10599C00FFF7A0F9FF2810D0062804D84D2323FACE
:1059AC0000F0C30709D42046FFF7A0FF28B1294611
:1059BC002046BDE83840FFF795B938BD10B5044610
:1059CC00FFF788F9031FDBB2012B08D92046FFF73C
:1059DC008DFF20B12046BDE81040FFF78BB90020A9
:1059EC0010BD704738B5044614252A46002100F036
:1059FC00A3F825804025074925812846258200F0FB
:105A0C006BF804496060284600F066F8E0602046B8
:105A1C0038BD00BF685F0B0030B50E4D2978BFF361
:105A2C005B8F11F0010487B011D12846FEF737FBCC
:105A3C0068B101A8FFF7D6FF01AA21460648FFF777
:105A4C00CFFD2846FEF730FB044800F047F802482B
:105A5C0007B030BD28E703202CE70320EF590B00DB
:105A6C007047000038B52025142304460360856078
:105A7C0005610649284600F02FF804496060284665
:105A8C0000F02AF8E060204638BD00BF685F0B00CC
:105A9C0030B50E4D2978BFF35B8F11F0010487B040
:105AAC0011D12846FEF7FBFA68B101A8FFF7DAFF1F
:105ABC0001AA21460648FFF7D3FD2846FEF7F4FA63
:105ACC00044800F00BF8024807B030BD44E703204F
:105ADC0048E703206D5A0B00FEF7DDBA00230146A0
:105AEC001A46184600F05EB80A44914200F1FF33A2
:105AFC0000D1704710B511F8014B03F8014F9142DA
:105B0C00F9D110BD884210B501EB020402D98442D0
:105B1C00234607D8431EA14208D011F8012B03F8E5
:105B2C00012FF8E7024401468A4200D110BD13F858
:105B3C00014D02F8014DF7E702440346934200D1B0
:105B4C00704703F8011BF9E738B5104B1D68AB6BB8
:105B5C000446B3B91820FFF769FA0246A86320B9C6
:105B6C000B4B0C484221FFF771FA0B490B4BC0E968
:105B7C0000130B4B83600B23838100210120C2E9AE
:105B8C000401AB6B00221C615A6138BDC4DF0320D9
:105B9C00695F0B00805F0B000E33CDAB34126DE6EA
:105BAC00ECDE05002DE9F843DFF8B8800646D8F89E
:105BBC0000001F460D46914600F056F8254B1C6818
:105BCC0034B9254C1C60254B13B11B68C4F88830C4
:105BDC0063681F2B07DDD8F8000000F047F84FF082
:105BEC00FF30BDE8F8834EB3D4F8880088B91C4B5D
:105BFC0023B9D8F8000000F038F8F0E74FF48470BF
:105C0C00FFF714FA0028F4D00023C0E94033C4F89D
:105C1C008800636840F8239001229A4000EB8301CE
:105C2C00D0F800311343C0F80031022EC1F8807057
:105C3C0002BFD0F804311343C0F804316368D8F8BC
:105C4C0000005A1C0233626044F8235000F00EF836
:105C5C000020C6E7E8E703205CE703200000000013
:105C6C0039500B0028E00320704770477047000044
:105C7C002D400B0069400B0091400B0095400B0030
:105C8C00000000004D4158333031303520776173BE
:105C9C00206E6F7420666F756E642E20506C65617B
:105CAC00736520636865636B20776972696E672F13
:105CBC00706F7765722E0041747461636820736530
:105CCC006E736F7220746F2066696E6765722077D1
:105CDC00697468207275626265722062616E642EEE
:105CEC0020507265737320616E79206B6579207416
:105CFC006F20737461727420636F6E766572736952
:105D0C006F6E007265643D002C2069723D002C2082
:105D1C0048523D002C20485276616C69643D002C41
:105D2C002053504F323D002C2053504F3256616C53
:105D3C0069643D005F5F5F606060616161616162C9
:105D4C006262626263636363636363636464646417
:105D5C0064646464646464646464646464646464F7
:105D6C006363636363636363626262626262616101
:105D7C006161606060605F5F5F5E5E5E5D5D5D5C2B
:105D8C005C5C5B5B5A5A595959585857575656557B
:105D9C00555454535252515150504F4E4E4D4C4CF1
:105DAC004B4A4A494848474645454443424241408C
:105DBC003F3E3E3D3C3B3A3938383736353433324A
:105DCC0031302F2E2D2C2B2A29282726252423222F
:105DDC00211F1E1D1C1B1A19171615141311100F39
:105DEC000E0C0B0A09070605030201000000000057
:105DFC0000000000D7500B00CD500B00C3500B001F
:105E0C00B9500B00AD500B00A1500B00D5570B0037
:105E1C00DD570B0095500B008D500B0083500B0081
:105E2C0079500B000D580B006170700025592D2511
:105E3C006D2D25645425483A254D3A2553257A0075
:105E4C0061736374696D6500000000000000000060
:105E5C0089530B0079530B007B530B00000000009F
:105E6C00000000006F540B00D7540B00AD540B0016
:105E7C003D510B009F540B0071540B0081540B00CF
:105E8C00D1540B0091540B0069540B00000000001E
:105E9C000000000071550B00DD550B00B5550B00D3
:105EAC003D510B0085550B00A1550B0093550B0074
:105EBC00AF550B0073550B0077550B00000000001D
:105ECC000000000015560B005F560B0037560B00F8
:105EDC0017560B003F560B0047560B004F560B0046
:105EEC0057560B00000000000000000077570B0015
:105EFC006D570B0063570B0019570B0057570B00CE
:105F0C004B570B00D5570B00DD570B003F570B00C1
:105F1C0037570B002D570B0023570B000D580B0058
:105F2C00000000000000000095570B009F570B006D
:105F3C00A9570B00B3570B00BD570B00C9570B00EB
:105F4C00D5570B00DD570B00E5570B00F1570B0035
:105F5C00F9570B0003580B000D580B000052454528
:105F6C004E54206D616C6C6F632073756363656553
:105F7C00646564002F6D6E742F776F726B73706134
:105F8C0063652F776F726B73706163652F47434343
:105F9C002D31302D706970656C696E652F6A656E78
:105FAC006B696E732D4743432D31302D70697065CD
:105FBC006C696E652D34385F3230323031313234A9
:105FCC005F313630363138303634312F7372632FBF
:105FDC006E65776C69622F6E65776C69622F6C6980
:105FEC0062632F7374646C69622F72616E642E63CA
:105FFC0000000000C5430B00E1500B0009510B00E1
:10600C002D510B0009520B0019520B0035520B008D
:08601C0081570B00E5580B0051
:10602400040000001400000003000000474E550067
:10603400BF8005A178C6630E68C7AF536539C1F444
:04604400AFAC4F3579
:106048000B0D00004C5E0B00C8DF032000000000B1
:106058000000000000000000000000000000000038
:106068000000000000000000000000000000000028
:106078000000000000000000000000000000000018
:106088000000000000000000000000000000000008
:1060980000000000000000000000000000000000F8
:1060A800000000000000000000000000ECE70320F2
:0460B80000000000E4
:1060C20000000102030405060708090A0B0C0D0E65
:1060D2000F101112131415161718191A1B1C1D1E56
:0460E2001F20280053
:0460E60078563412A2
:04000003B000401CED
:00000001FF
